{
  "contractName": "Election",
  "abi": [
    {
      "inputs": [],
      "payable": false,
      "stateMutability": "nonpayable",
      "type": "constructor"
    },
    {
      "anonymous": false,
      "inputs": [
        {
          "indexed": false,
          "internalType": "string",
          "name": "",
          "type": "string"
        },
        {
          "indexed": false,
          "internalType": "address",
          "name": "",
          "type": "address"
        }
      ],
      "name": "Vote",
      "type": "event"
    },
    {
      "constant": false,
      "inputs": [],
      "name": "start_election",
      "outputs": [],
      "payable": false,
      "stateMutability": "nonpayable",
      "type": "function"
    },
    {
      "constant": false,
      "inputs": [],
      "name": "end_election",
      "outputs": [],
      "payable": false,
      "stateMutability": "nonpayable",
      "type": "function"
    },
    {
      "constant": false,
      "inputs": [
        {
          "internalType": "string",
          "name": "id",
          "type": "string"
        }
      ],
      "name": "register_candidate",
      "outputs": [],
      "payable": false,
      "stateMutability": "nonpayable",
      "type": "function"
    },
    {
      "constant": false,
      "inputs": [
        {
          "internalType": "string",
          "name": "id",
          "type": "string"
        }
      ],
      "name": "vote",
      "outputs": [],
      "payable": false,
      "stateMutability": "nonpayable",
      "type": "function"
    },
    {
      "constant": true,
      "inputs": [],
      "name": "get_num_candidates",
      "outputs": [
        {
          "internalType": "uint256",
          "name": "",
          "type": "uint256"
        }
      ],
      "payable": false,
      "stateMutability": "view",
      "type": "function"
    },
    {
      "constant": true,
      "inputs": [
        {
          "internalType": "uint256",
          "name": "i",
          "type": "uint256"
        }
      ],
      "name": "get_candidate",
      "outputs": [
        {
          "internalType": "string",
          "name": "_candidate",
          "type": "string"
        },
        {
          "internalType": "uint256",
          "name": "_votes",
          "type": "uint256"
        }
      ],
      "payable": false,
      "stateMutability": "view",
      "type": "function"
    }
  ],
  "bytecode": "0x608060405234801561001057600080fd5b50336000806101000a81548173ffffffffffffffffffffffffffffffffffffffff021916908373ffffffffffffffffffffffffffffffffffffffff16021790555061088d806100606000396000f3fe608060405234801561001057600080fd5b50600436106100625760003560e01c80634af5f65214610067578063668d8b92146101225780636f3e5ef31461014057806395fc395d1461014a578063d1978776146101f8578063fc36e15b14610202575b600080fd5b6101206004803603602081101561007d57600080fd5b810190808035906020019064010000000081111561009a57600080fd5b8201836020820111156100ac57600080fd5b803590602001918460018302840111640100000000831117156100ce57600080fd5b91908080601f016020809104026020016040519081016040528093929190818152602001838380828437600081840152601f19601f8201169050808301925050505050505091929192905050506102bd565b005b61012a610358565b6040518082815260200191505060405180910390f35b610148610365565b005b6101766004803603602081101561016057600080fd5b81019080803590602001909291905050506103db565b6040518080602001838152602001828103825284818151815260200191508051906020019080838360005b838110156101bc5780820151818401526020810190506101a1565b50505050905090810190601f1680156101e95780820380516001836020036101000a031916815260200191505b50935050505060405180910390f35b610200610502565b005b6102bb6004803603602081101561021857600080fd5b810190808035906020019064010000000081111561023557600080fd5b82018360208201111561024757600080fd5b8035906020019184600183028401116401000000008311171561026957600080fd5b91908080601f016020809104026020016040519081016040528093929190818152602001838380828437600081840152601f19601f820116905080830192505050505050509192919290505050610578565b005b6000809054906101000a900473ffffffffffffffffffffffffffffffffffffffff1673ffffffffffffffffffffffffffffffffffffffff163373ffffffffffffffffffffffffffffffffffffffff161461031657600080fd5b60028190806001815401808255809150509060018203906000526020600020016000909192909190915090805190602001906103539291906107b3565b505050565b6000600280549050905090565b6000809054906101000a900473ffffffffffffffffffffffffffffffffffffffff1673ffffffffffffffffffffffffffffffffffffffff163373ffffffffffffffffffffffffffffffffffffffff16146103be57600080fd5b6001600560016101000a81548160ff021916908315150217905550565b60606000600283815481106103ec57fe5b906000526020600020018054600181600116156101000203166002900480601f01602080910402602001604051908101604052809291908181526020018280546001816001161561010002031660029004801561048a5780601f1061045f5761010080835404028352916020019161048a565b820191906000526020600020905b81548152906001019060200180831161046d57829003601f168201915b505050505091506003826040518082805190602001908083835b602083106104c757805182526020820191506020810190506020830392506104a4565b6001836020036101000a0380198251168184511680821785525050505050509050019150509081526020016040518091039020549050915091565b6000809054906101000a900473ffffffffffffffffffffffffffffffffffffffff1673ffffffffffffffffffffffffffffffffffffffff163373ffffffffffffffffffffffffffffffffffffffff161461055b57600080fd5b6001600560006101000a81548160ff021916908315150217905550565b600460003373ffffffffffffffffffffffffffffffffffffffff1673ffffffffffffffffffffffffffffffffffffffff16815260200190815260200160002060009054906101000a900460ff16156105cf57600080fd5b60011515600560009054906101000a900460ff161515146105ef57600080fd5b60011515600560019054906101000a900460ff161515141561061057600080fd5b60016003826040518082805190602001908083835b602083106106485780518252602082019150602081019050602083039250610625565b6001836020036101000a0380198251168184511680821785525050505050509050019150509081526020016040518091039020600082825401925050819055506001600460003373ffffffffffffffffffffffffffffffffffffffff1673ffffffffffffffffffffffffffffffffffffffff16815260200190815260200160002060006101000a81548160ff0219169083151502179055507f6df8a0bf3c87bd629e9f543b9d0831beeea8b80de3f478dd846541ed8d97405b813360405180806020018373ffffffffffffffffffffffffffffffffffffffff1673ffffffffffffffffffffffffffffffffffffffff168152602001828103825284818151815260200191508051906020019080838360005b8381101561077557808201518184015260208101905061075a565b50505050905090810190601f1680156107a25780820380516001836020036101000a031916815260200191505b50935050505060405180910390a150565b828054600181600116156101000203166002900490600052602060002090601f016020900481019282601f106107f457805160ff1916838001178555610822565b82800160010185558215610822579182015b82811115610821578251825591602001919060010190610806565b5b50905061082f9190610833565b5090565b61085591905b80821115610851576000816000905550600101610839565b5090565b9056fea265627a7a72315820ac26af27ed0c431d1376ac5f766fc4c000211aaf77f0c584cf11c7d90b49cc9964736f6c63430005100032",
  "source": "// SPDX-License-Identifier: MIT\npragma solidity >=0.4.22 <0.9.0;\n\ncontract Election {\n  address electionAuthority;\n  uint electionEndTime;\n  string[] candidates; // Registered candidates\n  mapping (string => uint) votes; // Candidate ID to number of votes\n  mapping (address => bool) hasVoted; // If a registered voter has voted or not\n  event Vote(string, address);\n  bool isElectionStarted;\n  bool isElectionEnded;\n\n  constructor() public {\n    electionAuthority = msg.sender;\n  }\n\n  modifier only_election_authority() {\n    if (msg.sender != electionAuthority) revert();\n    _;\n  }\n  \n  modifier vote_only_once() {\n    if (hasVoted[msg.sender]) revert();\n    _;\n  }\n\n  modifier election_started() {\n    if (isElectionStarted != true) revert();\n    _;\n  }\n\n  modifier election_not_ended() {\n    if (isElectionEnded == true) revert();\n    _;\n  }\n  \n  function start_election() public\n    only_election_authority\n  {\n    isElectionStarted = true;\n  }\n\n  function end_election() public\n    only_election_authority\n  {\n    isElectionEnded = true;\n  }\n\n  function register_candidate(string memory id) public\n    only_election_authority\n  {\n    candidates.push(id);\n  }\n  \n  function vote(string memory id) public\n    vote_only_once\n    election_started\n    election_not_ended\n  {\n    votes[id] += 1;\n    hasVoted[msg.sender] = true;\n    emit Vote(id, msg.sender);\n  }\n  \n  function get_num_candidates() public view returns(uint) {\n    return candidates.length;\n  }\n  \n  function get_candidate(uint i) public\n    view returns(string memory _candidate, uint _votes)\n  {\n    _candidate = candidates[i];\n    _votes = votes[_candidate];\n  }\n}\n",
  "sourcePath": "/home/cekingx/Coding/ethereum/truffle/simvoni-contract/contracts/Election.sol",
  "compiler": {
    "name": "solc",
    "version": "0.5.16+commit.9c3226ce.Emscripten.clang"
  },
  "schemaVersion": "3.3.4",
  "updatedAt": "2021-04-27T13:22:50.198Z",
  "networkType": "ethereum",
  "devdoc": {
    "methods": {}
  },
  "userdoc": {
    "methods": {}
  }
}